:100000000C9462000C948A000C948A000C948A0070
:100010000C948A000C948A000C948A000C948A0038
:100020000C948A000C948A000C948A000C948A0028
:100030000C948A000C948A000C948A000C948A0018
:100040000C94EE020C948A000C94BC020C94960260
:100050000C948A000C948A000C948A000C948A00F8
:100060000C948A000C948A000000000024002700F1
:100070002A0000000000250028002B0000000000DE
:1000800023002600290004040404040404040202DA
:100090000202020203030303030301020408102007
:1000A0004080010204081020010204081020000012
:1000B0000008000201000003040700000000000027
:1000C0000000B30411241FBECFEFD8E0DEBFCDBFC8
:1000D00011E0A0E0B1E0E0EDF9E002C005900D9282
:1000E000A035B107D9F721E0A0E5B1E001C01D922C
:1000F000AE3FB207E1F710E0C2E6D0E004C02197BE
:10010000FE010E94E004C136D107C9F70E943803FE
:100110000C94E6040C940000AF92BF92CF92DF9251
:10012000EF92FF920F931F93CF93DF936C017B01AC
:100130008B01040F151FEB015E01AE18BF08C0173D
:10014000D10759F06991D601ED91FC910190F081B0
:10015000E02DC6010995892B79F7C501DF91CF9173
:100160001F910F91FF90EF90DF90CF90BF90AF90D5
:100170000895FC01538D448D252F30E0842F90E0AD
:10018000821B930B541710F0CF9608950197089592
:10019000FC01918D828D981761F0A28DAE0FBF2F5B
:1001A000B11D5D968C91928D9F5F9F73928F90E0B1
:1001B00008958FEF9FEF0895FC01918D828D981720
:1001C00031F0828DE80FF11D858D90E008958FEF5D
:1001D0009FEF0895FC01918D228D892F90E0805C26
:1001E0009F4F821B91098F739927089581E691E0B3
:1001F0000E94EA0021E0892B09F420E0822F089573
:1002000080E090E0892B29F00E94F60081110C9487
:1002100000000895FC01A48DA80FB92FB11DA35AA9
:10022000BF4F2C91848D90E001968F739927848F16
:10023000A689B7892C93A089B1898C918370806439
:100240008C93938D848D981306C00288F389E02DDA
:1002500080818F7D80830895EF92FF920F931F938B
:10026000CF93DF93EC0181E0888F9B8D8C8D981369
:100270001AC0E889F989808185FF15C09FB7F89475
:10028000EE89FF896083E889F989808183708064C1
:1002900080839FBF81E090E0DF91CF911F910F910C
:1002A000FF90EF900895F62E0B8D10E00F5F1F4F1B
:1002B0000F731127E02E8C8D8E110CC00FB607FC2A
:1002C000FACFE889F989808185FFF5CFCE010E94B8
:1002D0000A01F1CFEB8DEC0FFD2FF11DE35AFF4F1B
:1002E000F0829FB7F8940B8FEA89FB898081806246
:1002F000CFCFCF93DF93EC01888D8823B9F0AA8903
:10030000BB89E889F9898C9185FD03C0808186FDD0
:100310000DC00FB607FCF7CF8C9185FFF2CF80811F
:1003200085FFEDCFCE010E940A01E9CFDF91CF9189
:100330000895833081F028F4813099F08230A9F05B
:1003400008958730A9F08830C9F08430B1F48091E5
:1003500080008F7D03C0809180008F778093800024
:10036000089584B58F7784BD089584B58F7DFBCFC4
:100370008091B0008F778093B00008958091B00095
:100380008F7DF9CFCF93DF93282F30E0F901E2552D
:10039000FF4F8491F901E656FF4FD491F901EA57D6
:1003A000FF4FC491CC23A1F081110E949901EC2F41
:1003B000F0E0EE0FFF1FE458FF4FA591B491EC91D0
:1003C000ED2381E090E009F480E0DF91CF91089582
:1003D00080E090E0FACF1F93CF93DF93282F30E097
:1003E000F901E255FF4F8491F901E656FF4FD49190
:1003F000F901EA57FF4FC491CC23A9F0162F8111C0
:100400000E949901EC2FF0E0EE0FFF1FEE58FF4F16
:10041000A591B4918FB7F894EC91111108C0D095C3
:10042000DE23DC938FBFDF91CF911F910895DE2BE8
:10043000F8CFCF93DF9390E0FC01E656FF4F249175
:100440008A579F4FFC0184918823D1F090E0880F58
:10045000991FFC01E859FF4FA591B491FC01EE589A
:10046000FF4FC591D49161110EC09FB7F8948C9144
:10047000E22FE0958E238C932881E223E8839FBFAF
:10048000DF91CF9108958FB7F894EC91E22BEC9324
:100490008FBFF6CF3FB7F8948091550190915601E8
:1004A000A0915701B091580126B5A89B05C02F3FD8
:1004B00019F00196A11DB11D3FBFBA2FA92F982F8A
:1004C0008827BC01CD01620F711D811D911D42E085
:1004D000660F771F881F991F4A95D1F70895FC0171
:1004E00001900020E9F73197AF01481B590BBC017F
:1004F00081E691E00C948C00CF93DF93CDB7DEB70B
:10050000A1970FB6F894DEBF0FBECDBF19A2805DD4
:1005100088A3CE0180960E946F02A1960FB6F89430
:10052000DEBF0FBECDBFDF91CF9108951F920F9216
:100530000FB60F9211242F933F934F935F936F93B6
:100540007F938F939F93AF93BF93EF93FF9381E636
:1005500091E00E940A01FF91EF91BF91AF919F91AD
:100560008F917F916F915F914F913F912F910F905C
:100570000FBE0F901F9018951F920F920FB60F92FB
:1005800011242F938F939F93EF93FF93E091710129
:10059000F09172018081E0917701F091780182FD04
:1005A0001BC0908180917A018F5F8F7320917B01B6
:1005B000821741F0E0917A01F0E0EF59FE4F958FFC
:1005C00080937A01FF91EF919F918F912F910F90DE
:1005D0000FBE0F901F9018958081F4CF1F920F923D
:1005E0000FB60F9211242F933F938F939F93AF9346
:1005F000BF938091510190915201A0915301B0910C
:1006000054013091500123E0230F2D3758F5019606
:10061000A11DB11D2093500180935101909352016F
:10062000A0935301B09354018091550190915601CC
:10063000A0915701B09158010196A11DB11D809361
:10064000550190935601A0935701B0935801BF9163
:10065000AF919F918F913F912F910F900FBE0F906F
:100660001F90189526E8230F0296A11DB11DD2CF29
:10067000789484B5826084BD84B5816084BD85B57D
:10068000826085BD85B5816085BD80916E00816089
:1006900080936E001092810080918100826080932F
:1006A0008100809181008160809381008091800031
:1006B0008160809380008091B10084608093B1005C
:1006C0008091B00081608093B00080917A00846056
:1006D00080937A0080917A00826080937A00809182
:1006E0007A00816080937A0080917A00806880939C
:1006F0007A001092C100E0917101F091720182E0E4
:100700008083E0916D01F0916E011082E0916F01A4
:10071000F09170018FEC808310927901E091750166
:10072000F091760186E08083E0917301F09174018D
:10073000808180618083E0917301F09174018081F8
:1007400088608083E0917301F091740180818068FA
:100750008083E0917301F091740180818F7D8083AB
:1007600060E084E00E94190260E085E00E941902C6
:1007700061E086E00E94190261E087E00E941902B0
:1007800061E088E00E94190261E089E00E9419029C
:1007900061E08AE00E94190261E08BE00E94190288
:1007A00061E08CE00E94190261E08DE00E94190274
:1007B000DD24D39490E0E92E90E0F92E84E00E94AD
:1007C000C2018C01C1E0892B09F4C0E0C093600133
:1007D00085E00E94C2015C01D1E0892B09F4D0E0E0
:1007E000D0935F016C2F8CE00E94EB016D2F8DE0A8
:1007F0000E94EB0181E0CD1380E080935E018C2F9D
:100800008D2780935D010A291B2981E001151105BF
:1008100009F080E080935C0181E0012B09F480E025
:1008200080935B01CD238C2F8D2580935A01C0933B
:10083000590182E191E00E946F028091600190E095
:100840000E947C028AE191E00E946F0280915F0128
:1008500090E00E947C028EE191E00E946F02809104
:10086000590190E00E947C028EE291E00E946F02AA
:1008700080915A0190E00E947C0285E391E00E9401
:100880006F0280915B0190E00E947C028AE391E01C
:100890000E946F0280915C0190E00E947C0280E4E3
:1008A00091E00E946F0280915D0190E00E947C02C5
:1008B00086E491E00E946F0280915E0190E00E94C8
:1008C0007C028DE491E00E946F0260915E0186E0FF
:1008D0000E94EB0160915D0187E00E94EB01609155
:1008E0005C0188E00E94EB0160915B0189E00E945D
:1008F000EB0160915A018AE00E94EB01609159017D
:100900008BE00E94EB010E944A022B013C0182E332
:10091000882E912CA12CB12C0E944A0264197509D1
:1009200086099709683E734081059105A8F321E087
:10093000821A9108A108B10888EE480E83E0581E7B
:10094000611C711C81149104A104B10429F7E11404
:10095000F10409F433CF0E94F600882309F42ECF66
:100960000E9400002BCFE1E6F1E01382128288EEB4
:1009700093E0A0E0B0E084839583A683B78384E00E
:1009800091E09183808385EC90E09587848784EC67
:1009900090E09787868780EC90E0918B808B81EC4C
:1009A00090E0938B828B82EC90E0958B848B86EC2D
:1009B00090E0978B868B118E128E138E148E089575
:1009C000EE0FFF1F0590F491E02D0994F894FFCFEE
:1009D000000000002C018C00B9007901EA00C80079
:1009E000DC00494E2D2D20413A0020423A00202DB6
:1009F0002D2D204F55542D2D20414E443A00204E90
:100A0000414E443A00204F523A00204E4F523A0095
:100A100020584F523A0020584E4F523A000D0A00CB
:00000001FF
